{
  "contractName": "CharityDonation",
  "abi": [
    {
      "inputs": [],
      "stateMutability": "nonpayable",
      "type": "constructor"
    },
    {
      "anonymous": false,
      "inputs": [
        {
          "indexed": true,
          "internalType": "address",
          "name": "donor",
          "type": "address"
        },
        {
          "indexed": false,
          "internalType": "uint256",
          "name": "amount",
          "type": "uint256"
        }
      ],
      "name": "DonationReceived",
      "type": "event"
    },
    {
      "anonymous": false,
      "inputs": [
        {
          "indexed": true,
          "internalType": "address",
          "name": "to",
          "type": "address"
        },
        {
          "indexed": false,
          "internalType": "uint256",
          "name": "amount",
          "type": "uint256"
        }
      ],
      "name": "FundsWithdrawn",
      "type": "event"
    },
    {
      "inputs": [
        {
          "internalType": "address",
          "name": "",
          "type": "address"
        }
      ],
      "name": "donations",
      "outputs": [
        {
          "internalType": "uint256",
          "name": "",
          "type": "uint256"
        }
      ],
      "stateMutability": "view",
      "type": "function",
      "constant": true
    },
    {
      "inputs": [],
      "name": "owner",
      "outputs": [
        {
          "internalType": "address",
          "name": "",
          "type": "address"
        }
      ],
      "stateMutability": "view",
      "type": "function",
      "constant": true
    },
    {
      "inputs": [],
      "name": "donate",
      "outputs": [],
      "stateMutability": "payable",
      "type": "function",
      "payable": true
    },
    {
      "inputs": [
        {
          "internalType": "uint256",
          "name": "amount",
          "type": "uint256"
        }
      ],
      "name": "withdrawFunds",
      "outputs": [],
      "stateMutability": "nonpayable",
      "type": "function"
    },
    {
      "inputs": [],
      "name": "getBalance",
      "outputs": [
        {
          "internalType": "uint256",
          "name": "",
          "type": "uint256"
        }
      ],
      "stateMutability": "view",
      "type": "function",
      "constant": true
    }
  ],
  "bytecode": "0x608060405234801561001057600080fd5b50336000806101000a81548173ffffffffffffffffffffffffffffffffffffffff021916908373ffffffffffffffffffffffffffffffffffffffff160217905550610737806100606000396000f3fe60806040526004361061004a5760003560e01c806312065fe01461004f578063155dd5ee1461007a5780638da5cb5b146100a3578063cc6cb19a146100ce578063ed88c68e1461010b575b600080fd5b34801561005b57600080fd5b50610064610115565b60405161007191906105e6565b60405180910390f35b34801561008657600080fd5b506100a1600480360381019061009c919061043e565b61011d565b005b3480156100af57600080fd5b506100b86102c6565b6040516100c5919061056b565b60405180910390f35b3480156100da57600080fd5b506100f560048036038101906100f09190610415565b6102ea565b60405161010291906105e6565b60405180910390f35b610113610302565b005b600047905090565b60008054906101000a900473ffffffffffffffffffffffffffffffffffffffff1673ffffffffffffffffffffffffffffffffffffffff163373ffffffffffffffffffffffffffffffffffffffff16146101ab576040517f08c379a00000000000000000000000000000000000000000000000000000000081526004016101a2906105a6565b60405180910390fd5b804710156101ee576040517f08c379a00000000000000000000000000000000000000000000000000000000081526004016101e5906105c6565b60405180910390fd5b60008054906101000a900473ffffffffffffffffffffffffffffffffffffffff1673ffffffffffffffffffffffffffffffffffffffff166108fc829081150290604051600060405180830381858888f19350505050158015610254573d6000803e3d6000fd5b5060008054906101000a900473ffffffffffffffffffffffffffffffffffffffff1673ffffffffffffffffffffffffffffffffffffffff167feaff4b37086828766ad3268786972c0cd24259d4c87a80f9d3963a3c3d999b0d826040516102bb91906105e6565b60405180910390a250565b60008054906101000a900473ffffffffffffffffffffffffffffffffffffffff1681565b60016020528060005260406000206000915090505481565b60003411610345576040517f08c379a000000000000000000000000000000000000000000000000000000000815260040161033c90610586565b60405180910390fd5b34600160003373ffffffffffffffffffffffffffffffffffffffff1673ffffffffffffffffffffffffffffffffffffffff16815260200190815260200160002060008282546103949190610612565b925050819055503373ffffffffffffffffffffffffffffffffffffffff167f264f630d9efa0d07053a31163641d9fcc0adafc9d9e76f1c37c2ce3a558d2c52346040516103e191906105e6565b60405180910390a2565b6000813590506103fa816106d3565b92915050565b60008135905061040f816106ea565b92915050565b60006020828403121561042757600080fd5b6000610435848285016103eb565b91505092915050565b60006020828403121561045057600080fd5b600061045e84828501610400565b91505092915050565b61047081610668565b82525050565b6000610483602283610601565b91507f446f6e6174696f6e206d7573742062652067726561746572207468616e207a6560008301527f726f0000000000000000000000000000000000000000000000000000000000006020830152604082019050919050565b60006104e9601d83610601565b91507f4f6e6c79206f776e65722063616e2077697468647261772066756e64730000006000830152602082019050919050565b6000610529601483610601565b91507f496e73756666696369656e742062616c616e63650000000000000000000000006000830152602082019050919050565b6105658161069a565b82525050565b60006020820190506105806000830184610467565b92915050565b6000602082019050818103600083015261059f81610476565b9050919050565b600060208201905081810360008301526105bf816104dc565b9050919050565b600060208201905081810360008301526105df8161051c565b9050919050565b60006020820190506105fb600083018461055c565b92915050565b600082825260208201905092915050565b600061061d8261069a565b91506106288361069a565b9250827fffffffffffffffffffffffffffffffffffffffffffffffffffffffffffffffff0382111561065d5761065c6106a4565b5b828201905092915050565b60006106738261067a565b9050919050565b600073ffffffffffffffffffffffffffffffffffffffff82169050919050565b6000819050919050565b7f4e487b7100000000000000000000000000000000000000000000000000000000600052601160045260246000fd5b6106dc81610668565b81146106e757600080fd5b50565b6106f38161069a565b81146106fe57600080fd5b5056fea26469706673582212205ee87b2b2a1d3062d2134929b02710a6f27740f409eebd0a9d1fa77d031ff1bb64736f6c63430008000033",
  "immutableReferences": {},
  "source": "// SPDX-License-Identifier: MIT\r\npragma solidity ^0.8.0;\r\n\r\ncontract CharityDonation {\r\n    address public owner;\r\n    mapping(address => uint256) public donations;\r\n\r\n    event DonationReceived(address indexed donor, uint256 amount);\r\n    event FundsWithdrawn(address indexed to, uint256 amount);\r\n\r\n    constructor() {\r\n        owner = msg.sender;\r\n    }\r\n\r\n    function donate() public payable {\r\n        require(msg.value > 0, \"Donation must be greater than zero\");\r\n        donations[msg.sender] += msg.value;\r\n        emit DonationReceived(msg.sender, msg.value);\r\n    }\r\n\r\n    function withdrawFunds(uint256 amount) public {\r\n        require(msg.sender == owner, \"Only owner can withdraw funds\");\r\n        require(address(this).balance >= amount, \"Insufficient balance\");\r\n        payable(owner).transfer(amount);\r\n        emit FundsWithdrawn(owner, amount);\r\n    }\r\n\r\n    function getBalance() public view returns (uint256) {\r\n        return address(this).balance;\r\n    }\r\n}\r\n",
  "sourcePath": "C:\\Users\\user\\charity-donation-dapp\\contracts\\CharityDonation.sol",
  "compiler": {
    "name": "solc",
    "version": "0.8.0+commit.c7dfd78e.Emscripten.clang"
  },
  "schemaVersion": "3.4.16",
  "updatedAt": "2024-06-13T14:42:33.717Z",
  "networkType": "ethereum",
  "devdoc": {
    "kind": "dev",
    "methods": {},
    "version": 1
  },
  "userdoc": {
    "kind": "user",
    "methods": {},
    "version": 1
  }
}